:020000040800F2
:10000000401900209D010008AF210008F11F0008E1
:10001000AD210008F9020008E53E000800000000DC
:10002000000000000000000000000000DF210008C8
:10003000B104000800000000DD210008E1210008F3
:10004000B7010008B7010008B7010008B7010008B0
:10005000B7010008B7010008B7010008B7010008A0
:10006000B7010008B7010008B7010008B701000890
:10007000FD02000809030008150300082103000819
:10008000B7010008B7010008B7010008B701000870
:10009000B7010008B7010008B7010008B701000860
:1000A000B7010008B7010008B7010008B701000850
:1000B000B7010008B7010008B7010008B701000840
:1000C000B7010008B7010008B7010008B701000830
:1000D000B7010008B7010008B7010008F9270008B8
:1000E000B7010008B7010008B7010008B701000810
:1000F000B7010008B7010008B7010008B701000800
:10010000B7010008B7010008B7010008B7010008EF
:10011000E5220008B7010008B7010008B701000890
:10012000B7010008B7010008B7010008B7010008CF
:10013000B7010008B7010008B7010008B7010008BF
:10014000B7010008B7010008B7010008D121000875
:10015000B7010008B7010008B7010008B70100089F
:10016000B7010008B7010008B7010008B70100088F
:10017000B7010008B7010008B7010008000000003F
:10018000B7010008B7010008DFF80CD000F0A2F8B2
:1001900000480047B5410008401900200648804744
:1001A00006480047FEE7FEE7FEE7FEE7FEE7FEE75C
:1001B000FEE7FEE7FEE7FEE791220008890100085E
:1001C0002DE9F05F0546002092469B46884606468C
:1001D000814640241BE0284641464746224600F01F
:1001E00069F853465A46C01A914110D31146184631
:1001F000224600F050F82D1A67EB01084F462246C0
:100200000120002100F047F817EB00094E41201EA5
:10021000A4F10104DFDC484631462A464346BDE8E6
:10022000F09F40EA01039B0703D009E008C9121FB1
:1002300008C0042AFAD203E011F8013B00F8013BA0
:10024000521EF9D27047D2B201E000F8012B491ECC
:10025000FBD270470022F6E710B513460A46044663
:100260001946FFF7F0FF204610BD30B50B4601469A
:1002700000202022012409E021FA02F59D4205D345
:1002800003FA02F5491B04FA02F52844151EA2F1EF
:100290000102F1DC30BD202A04DB203A00FA02F131
:1002A000002070479140C2F1200320FA03F3194364
:1002B00090407047202A04DB203A21FA02F0002106
:1002C000704721FA02F3D040C2F120029140084366
:1002D00019467047064C074D06E0E06840F0010300
:1002E00094E8070098471034AC42F6D3FFF750FF6C
:1002F0000043000820430008FEE70000014800F02A
:1003000031B900000C060020014800F02BB90000B4
:100310004C050020014800F025B900006C060020C3
:10032000014800F01FB90000AC0500200168182347
:10033000CAB2103AB2FBF3F2054B6FF30901032A7C
:100340009B5CC36500D9091D8165084670470000A4
:10035000DC42000810B5014600208B698A6A4FF024
:10036000C07453B1B3F5005F15D072B1012A0CD03F
:10037000022A0AD0032A09D104E01AB1012A06D0C0
:10038000022A03D1C96AC90100D5012010BDC96A7A
:10039000A142FAD010BD002AF7D0012AF2D0022AD9
:1003A000F3D0032AF3D010BD30B50468256825F4D6
:1003B00080252560046863608368402B036803D050
:1003C00099600068C26030BD9A600068C16030BD4D
:1003D00070B5154815490278154801F025FA154DF4
:1003E000287801281FD1144C217814A003F07CFD3B
:1003F000012000F02DFA22780C49154801F004FB89
:10040000012000F025FA094912A003F06DFD00203B
:100410000146064A02E01154401CC0B223789842BB
:10042000F9D32170297070BD04000020E804002079
:10043000A804002001000020000000205541525473
:100440005F72785F6C656E3D25640D0A00000000E8
:100450006804002053656E642044617465203A206E
:100460002573200D0A00000010B500224FEA02019A
:1004700000EB8203521CC3F87C130F2AF8D300222E
:100480004FF400738418521C84F81C119A42F9D35B
:100490000170417001228270C0F8B81302764023C7
:1004A0008371417680F81C1380F81D23002010BD55
:1004B00070472DE9F0410446876D00F0B9FA064611
:1004C00094F835000025022806D08020606584F865
:1004D00034500120BDE8F0812068016821F0160148
:1004E00001602068416921F080014161206C08B9F8
:1004F000A06C20B12068016821F00801016020682B
:10050000016821F0010101600BE000F091FA801B0D
:10051000052806D92020606504F8345F0320607048
:10052000D8E720680068C007EFD194F85C103F203E
:100530008840B86004F8345F012060700020C9E78B
:1005400090F83510022903D08021416501207047C1
:10055000052180F835100068016821F00101016073
:10056000002070472DE9F84304464FF00009CDF80C
:10057000009063484FF41651A56D0068B0FBF1F789
:100580002E6894F85C10082000FA01F131420FD077
:1005900021680A6852070BD50A6822F004020A6033
:1005A00094F85C108840A860606D40F001006065C0
:1005B00094F85C104FF0010808FA01F0304208D0BE
:1005C00021684969090604D5A860606D40F0020001
:1005D000606594F85C1004208840304208D021689F
:1005E0000968890704D5A860606D40F00400606563
:1005F00094F85C1010208840304218D021680968B7
:10060000090714D5A86020680168490304D500686B
:10061000000308D5A16C07E00168C90503D401688F
:1006200021F008010160216C09B12046884794F847
:100630005C1020208840304231D021680968C9060A
:100640002DD5A86094F8350005282068016806D0EB
:10065000490347D5006800031DD4616C1CE021F0FC
:10066000160101602068416921F080014161206C20
:1006700008B9A06C20B12068016821F00801016070
:1006800094F85C103F208840A86084F8349084F887
:100690003580216D1FE0E16B09B120468847606D10
:1006A00000282BD0606DC00714D0052084F83500D9
:1006B0002068016821F0010101600098401C009051
:1006C000B84203D820680068C007F6D184F8349097
:1006D00084F83580E16C002910D001B02046BDE8D7
:1006E000F04308470168C905D5D4016821F010011D
:1006F000016084F8349084F83580CCE7BDE8F88355
:10070000240000202DE9F041044600F091F906464E
:100710005CB1002584F83450022084F8350020684C
:10072000016821F0010101600DE00120BDE8F081C8
:1007300000F07EF9801B052805D920206065032084
:1007400084F83500F2E720680068C007F0D122681D
:10075000116820480140D4E901031843D4E9033665
:100760003343184363691843A3691843E369184383
:10077000236A18430843616A042903D1D4E90B139F
:1007800019430843106020684069666A20F0070139
:1007900030460E43012704280CD1A06A0643E06AC4
:1007A00040B12046FFF7D6FD20B14020606584F8B7
:1007B0003570BAE7206846612046FFF7B7FD94F828
:1007C0005C203F2191408160656584F83570002090
:1007D000ACE700003F8010F02DE9F0410446866D43
:1007E00090F83400002501280DD0012084F8340051
:1007F00094F835700020012F07D084F834000225CA
:100800002846BDE8F0810220FBE7022784F8357016
:1008100060652046FFF7C8FD94F85C103F208840D3
:10082000B0602068016841F01601016020684169EC
:1008300041F080014161206C20B12068016841F0E5
:10084000080101602068016841F001010160D7E7FB
:1008500070B5044600F0ECF80546601C02D0044870
:100860000078044400F0E4F8401BA042FAD370BDC5
:10087000180000202DE9F84FDFF87CB100224FF07E
:1008800001084FF0030A4FF00F090BF1040E00BFEF
:100890000B6808FA02F42340A3426ED14D68022D82
:1008A00001D0122D0ED1D50800EB850CDCF82050BC
:1008B0005607F70E09FA07F6B5430E69BE402E43F8
:1008C000CCF82060066855000F790AFA05FC07F09D
:1008D000030726EA0C06AF40374307604E68012E37
:1008E00005D0022E03D0112E01D0122E0ED1866813
:1008F000CF6826EA0C06AF40374387604668A643B8
:100900000C79C4F30014944034434460C6688C6886
:1009100026EA0C06AC403443C4604C68E40065D55C
:10092000364C256845F480452560246822F003058F
:1009300004F480440094324C2E19D6F808489507E8
:100940002F0F09FA07F5AC432E4DA84201D100251F
:1009500024E02D4DA84201D101251FE02B4DA842D6
:1009600001D102251AE02A4DA84201D1032515E044
:10097000284DA84202D1042510E037E0264DA842B8
:1009800001D105250AE0254DA84201D1062505E043
:10099000234DA84201D1072500E00825BD4025438D
:1009A000C6F80858DBF800405D464E689C43F603E5
:1009B00000D51C432C60DEF8004075464E689C4311
:1009C000B60300D51C432C600B4D08352C684E68CF
:1009D0009C43F60200D51C432C60074D0C352C6857
:1009E0004E689C43B60200D51C432C60521C102A52
:1009F000FFF44EAFBDE8F88F003C014044380240A0
:100A000000300140000002400004024000080240A3
:100A1000000C024000100240001402400018024086
:100A2000001C02400AB1816170470904FBE7000025
:100A3000014880687047000018000020D0F8940238
:100A400002F0E7BBD0F8940202F0F7BB006802F0B6
:100A500023BF006802F024BF01EB810100EBC1005D
:100A600090F85C00704710B5044690F89002012899
:100A700009D0012084F89002206802F01CFF0020B9
:100A800084F8900210BD022010BDFEB50546DDE9D8
:100A9000096095F89042089F012C1ED0012485F82A
:100AA000904201EB810405EBC40402F07F0C04F8D2
:100AB000383F20816170E67184F802C04FEAD21C91
:100AC00084F803C027710097CDE90160286802F01F
:100AD00097FF002185F89012FEBD0220FEBD7047F1
:100AE0002DE9F00301EB8104DDE90689DDE908C7A2
:100AF00000EBC404022684F83B2084F83F30B8F1B0
:100B0000000F0AD084F84260002553B1012B3FD07A
:100B1000022B1DD0032B2AD120E0032584F842505C
:100B2000F2E7B8F1010F22D10ABBBCF1000F10D1DE
:100B3000012284F8512002E084F8425001E084F858
:100B4000426094F85C20022A11D084F83D700EE0D7
:100B50002AB994F85120002AF1D1EDE712B194F8A6
:100B6000502001E094F8512092B184F84260C4E929
:100B7000119C84F85C50E56484F8391084F85D5069
:100B8000027C04F138010068BDE8F00302F0B4BF54
:100B900084F84250EBE700002DE9F041044600687C
:100BA0000025064602F083FE01287DD1206803F06F
:100BB000ECF8002878D0206803F0E7F8800203D52D
:100BC00021684FF400104861206803F0DEF8C0028D
:100BD00003D521684FF480104861206803F0D5F8F0
:100BE000400103D521684FF080604861206803F020
:100BF000CCF8800702D5216802204861206803F004
:100C0000C4F8800010D5D6F8400420F02E00C6F8B5
:100C100040042046FFF716FF0121206803F09AF8F0
:100C200021684FF000504861206803F0AEF8C00121
:100C300002D5204601F04EF9206803F0A6F800071F
:100C400005D5204600F0ADF82168082048612068ED
:100C500003F09BF8800120D5206802F046FF07468C
:100C60004FF0010812E000BF08FA05F038420CD03E
:100C700006EB4510D0F80005E9B20004204602D585
:100C800000F004FF01E001F01AF86D1CA068A84212
:100C9000EAD821684FF000704861206803F075F8C9
:100CA000C0060ED5206800E00BE0816921F010013C
:100CB0008161204601F064F92068816941F01001EA
:100CC0008161BDE8F08130B58BB0040026D00320EF
:100CD00084F89102204600F023F8206802F078FDA5
:100CE00004F1100128220D466846FFF79AFA94E8AD
:100CF0000F0002F01BFD0121206803F070F828228C
:100D000029466846FFF78DFA94E80F0002F0B8FF15
:100D1000012084F8910200200BB030BD0120FBE7D8
:100D200030B5006887B0B0F1A04F30D14FF40070FB
:100D30000024CDE900040120164D029069462846A2
:100D4000FFF798FD4FF4C05000900220CDE9010458
:100D5000032003900A20049069462846FFF78AFD85
:100D60000D48016841F0800101600B4810300168B6
:100D700041F4804101600068002200F48040059049
:100D80000221432000F0CAF8432000F0BBF807B06E
:100D900030BD00000000024034380240006803F01B
:100DA00008B8D0F8940202F07FBA10B5044690F863
:100DB000900201280DD0012084F89002206802F0F2
:100DC00043FD0121206802F029FD002084F89002F3
:100DD00010BD022010BD10B5044690F89002012805
:100DE00009D0012084F89002206803F00EF800205A
:100DF00084F8900210BD022010BD000002488168F6
:100E00000278114481607047180000200B4810B52B
:100E1000016841F400710160016841F48061016082
:100E2000016841F480710160032000F097F8002010
:100E300000F006F800F024F8002010BD003C02404D
:100E400070B50D4D04464FF47A712878B1FBF0F07F
:100E50000A490968B1FBF0F000F01BFB48B9102CFF
:100E600007D200222146501E00F058F800206C6086
:100E700070BD012070BD000018000020240000207B
:100E80001F4808B5016841F480410160006800F422
:100E9000804000901A48001F016841F080510160B5
:100EA000006800F080500090032000F057F8002206
:100EB00011466FF00B0000F031F8002211466FF080
:100EC0000A0000F02BF8002211466FF0090000F034
:100ED00025F800221146501F00F020F8002211468C
:100EE000101F00F01BF800221146901E00F016F8AB
:100EF0000022BDE808401146501E00F00FB8000067
:100F00004438024000F01F02012191404009800056
:100F100000F1E020C0F8001170470000F0B40E4B63
:100F20001B680C46C3F30223C3F10705042D00D947
:100F30000425191D072901D2002300E0DB1E01262C
:100F400006FA05F1491E214099409E40761E164042
:100F50003143F0BC01F02CB90CED00E0064900F083
:100F6000070208684FF6FF03184040EA0220034AD0
:100F700010430860704700000CED00E00000FA0527
:100F80002DE9F0470E46050065D0DFF81481D8F84A
:100F90000000F7B200F00F00B04207D288F80070EE
:100FA000D8F8000000F00F00B04254D128683D4C42
:100FB000810712D5400703D5206840F4E050206037
:100FC0002878000703D5206840F46040206020683E
:100FD000A96820F0F000084320602878C0072DD0D1
:100FE000304968680839012812D0022813D0032834
:100FF00011D00968890700292DDA216821F0030141
:1010000001432160FFF714FD814641F2883A0EE06A
:1010100009688903EFE709688901ECE7FFF708FD34
:10102000A0EB0901514502D90320BDE8F0872068F3
:10103000696800F00C00B0EB810FEFD1D8F8001018
:10104000404601F00F01B14207D90770006800F077
:101050000F00B04201D00120E7E72878400705D50E
:101060002068E96820F4E0500843206028780007F1
:1010700006D52068296920F4604040EAC10020605C
:1010800000F03CF82168084AC1F30311515CC840E4
:10109000064908600020FFF7D3FE0020C5E70000E6
:1010A000003C024008380240E442000824000020CE
:1010B00001480068704700002400002004480549EA
:1010C00000680968044AC1F38221515CC840704736
:1010D0002400002008380240F44200080448054972
:1010E00000680968044AC1F34231515CC840704746
:1010F0002400002008380240F4420008154810B5CA
:10110000006810F00C02144813D04110042A0FD0CC
:10111000082A0ED10F4C241F2268236802F03F02D8
:101120005B0207D52068C0F38810A0FB010106E030
:10113000084610BD2168C1F38811A1FB00010023FE
:10114000FFF73EF82168C1F30141491C4900B0FB9B
:10115000F1F010BD083802400024F4002DE9F84FEA
:10116000050076D02878DFF8F8B2BE4CC00749D029
:10117000DBF800105846C1F38101012908D000684E
:10118000C0F3810002280AD1201D0068400206D564
:101190002068800336D568680028E2D032E06868AD
:1011A000B0F5803F10D0B0F5A02F206810D020F40B
:1011B00080302060206820F4802020606868A0B122
:1011C000FFF736FC06460CE0206840F48030F4E778
:1011D00040F480202060F7E7FFF72AFC801B64289A
:1011E00073D820688003F7D50CE0FFF721FC064692
:1011F00005E000BFFFF71CFC801B6428F0D82068C6
:101200008003F7D42878DFF8608280074FF0000968
:101210003ED5DBF80010584611F00C0F09D00068DD
:10122000C0F3810002280BD18D48001F00684002E6
:1012300006D42068800715D5E868012809D111E097
:10124000E868B8B10120C8F80000FFF7F1FB0646D6
:1012500005E002E1FFF7ECFB801B0228C0D8206804
:101260008007F7D52068296920F0F80040EAC1001E
:1012700020600DE0C8F80090FFF7DAFB064604E0B6
:10128000FFF7D6FB801B02281FD820688007F7D401
:101290002878000722D5724E744869696C3671B19E
:1012A00001210160FFF7C4FB074604E0FFF7C0FB24
:1012B000C01B022809D830688007F7D50EE0C0F8B7
:1012C0000090FFF7B5FB074605E083E0FFF7B0FBB2
:1012D000C01B02287ED830688007F7D428784007E2
:1012E00068D5DFF87CA100270AF1380ADAF8000097
:1012F000C0000BD4DAF8001041F08051CAF8001099
:10130000DAF80000012700F080500090584E306855
:10131000C00510D4306840F480703060FFF788FB5F
:10132000009005E0FFF784FB0099401A022851D88D
:101330003068C005F6D54A4EA868683601280FD037
:101340000528306810D020F001003060306820F0AF
:1013500004003060A868B8B1FFF76AFB00900FE0A6
:10136000306840F00100F4E740F004003060F7E737
:10137000FFF75EFB0099411A41F28830814264D840
:1013800030688007F4D50EE0FFF752FB009007E0CD
:10139000FFF74EFB0099411A41F28830814254D840
:1013A00030688007F4D42FB1DAF8001021F08051B2
:1013B000CAF80010A869C0B3DBF80010C1F38101BE
:1013C00002294AD00228484607D0C8F86000FFF733
:1013D0002FFB00E039E005463AE04746C8F86000D8
:1013E000FFF726FB064604E0FFF722FB801B0228DE
:1013F0002BD820688001F7D4D5E907010843A96AF2
:101400001C4A490802EB01416A6A41EA8211084319
:1014100095F82C1040EA01611148001F016001207D
:101420003866FFF705FB054605E014E0FFF700FB13
:10143000401B022809D820688001F7D50BE000BFC7
:10144000FFF7F6FA401B022802D90320BDE8F88F07
:1014500020688001F4D40020F8E70120F6E70000BE
:10146000083802400038024000004742800E4742E0
:10147000007000400000FFFF4FF0E02104280869E1
:1014800003D020F004000861704740F00400FAE740
:10149000704710B5401EB0F1807F01D3012010BD10
:1014A0004FF0E02460610F21601700F081FE002002
:1014B000A06107202061002010BD10B5FFF7E8FFF4
:1014C00010BD10B504460068416994F83920C1F395
:1014D000C011212A0BD151B1416921F08001416134
:1014E000206B08B1FEF7E5FF204600F07BFF206887
:1014F000416994F83A20C1F38011222A0BD151B1ED
:10150000416921F040014161606B08B1FEF7D1FFF4
:10151000204600F059FF002010BD704770B50268EA
:1015200004461068D168536910F00F0F50D003F0D3
:10153000010501F4907635435DD0C20705D0CA0598
:1015400003D5E26B42F00102E263420705D5DA07F8
:1015500003D0E26B42F00202E263820705D5DA07AC
:1015600003D0E26B42F00402E263020705D5DA071A
:1015700003D0E26B42F00802E263E26B002A33D050
:10158000800604D5880602D5204600F034FF206886
:101590004069E16BC0F38010090700D428B32046EE
:1015A00000F012FF2068416949061AD5416921F00F
:1015B00040014161606BA0B11B490165606BFEF7A2
:1015C000BFFF002810D0606B016DBDE87040084778
:1015D000830610D58B060ED52046BDE8704000F07E
:1015E0000ABF2046FFF799FF70BD2046FFF795FF21
:1015F0000020E06370BD030606D50B0604D5204627
:10160000BDE8704001F094B84006F3D54806F1D526
:10161000D168204621F04001D160202184F83910A2
:1016200000F032FA70BD0000F122000870B504002D
:1016300004D094F83900002510B106E0012070BDF7
:1016400084F83850204600F023F8242084F839002C
:101650002068C16821F40051C160204600F012FFEB
:101660002068016921F4904101612068416921F0FD
:101670002A0141612068C16841F40051C160E563FD
:10168000202084F8390084F83A00002070BD000062
:101690002DE9F047044606685348DFF848C10221A7
:1016A000012203230025470586B04FF0400A4FF47E
:1016B0008069664545D1066846F4002606600068E4
:1016C00000F40020059098028DE80F000820049097
:1016D00069464648FFF7CEF8464E4548B846306062
:1016E000C6E90175C6E903597561B561F5613562F1
:1016F0004F4630467562FFF705F818B188213EA0C5
:1017000002F0F1FB6663B463424E3948C6E9035701
:101710007561B561F56135623030756286E8010545
:101720003046FEF7EFFF18B19A2133A002F0DBFB41
:101730002663002211463420B463FFF7EFFB342008
:101740004AE0DFF8D4C0664548D1066846F48026F2
:101750000660006800F4802005904FF440708DE82A
:101760000F000720049069462C48FFF783F82048B3
:101770002B4E1838B8463060C6E90175C6E90359E2
:101780007561B561F56135624F4630467562FEF7A9
:10179000B9FF18B1C72118A002F0A5FB6663B463B6
:1017A000204E1348C6E903577561B561F56135628E
:1017B0001830756286E801053046FEF7A3FF18B1C0
:1017C000D9210DA002F08FFB2663002201212720E2
:1017D000B463FFF7A3FB2720FFF794FB06B0BDE837
:1017E000F0870000004C00404038024000080240F2
:1017F000406002404C0500202E2E2F5372632F7341
:10180000746D3332663478785F68616C5F6D7370C5
:101810002E630000AC05002000480040000C024090
:101820000C0600206C060020F8B5044690F83A003B
:1018300020283CD1C1B3BAB394F83800012836D07F
:10184000012084F83800A162A2850025E5632220EA
:1018500084F83A00636B1748D863636B16481864C2
:10186000636B1648D864606B134605650846666B63
:10187000216802463046091DFEF7AEFF2068016868
:101880004168009184F83850C16841F48071C160AA
:101890002068416941F0010141612068416941F0DE
:1018A000400141610020F8BDFFE70120FBE7022075
:1018B000F9E700004B2300088723000801230008F4
:1018C00090F83A30202B1DD1D1B1CAB190F8383000
:1018D000012B17D081628285C2850021C16322223B
:1018E00080F83A2080F8381001684A6942F0010215
:1018F0004A610068C16841F49071C160002070477E
:10190000012070470220704770B50E4C0546616893
:10191000491C6160E068401CE0600B48814202D1D4
:10192000A0F580606060012228466168FFF7C8FF6B
:101930000028F8D1606810F8010C0A2801D10120B4
:10194000A06070BD040000206804002070472DE9ED
:10195000F843044690F839001F4616460D462028E5
:1019600050D1A5B19EB194F8380001284AD0012089
:1019700084F838004FF00008C4F83C80212084F837
:101980003900FFF755F8A6848146E68426E0012059
:10199000BDE8F883E08C401EE084A0684B46B0F5BB
:1019A000805F4FF000024FF080012046009703D087
:1019B00000F0EFFEE8B90DE000F0EBFEC8B92888B2
:1019C0002168C0F308004860206908B16D1C05E07B
:1019D000AD1C03E0216815F8010B4860E08C00287D
:1019E000D8D14B46002240212046009700F0D1FE7E
:1019F00008B10320CCE7202084F8390084F838802F
:101A00000020C5E70220C3E770B5044690F839000E
:101A1000202830D169B362B394F8380001282AD065
:101A2000012084F838002162A284E2840025E56365
:101A3000212084F83900236B1048D863236B1048A9
:101A40001864236B0F48D864206B1346056526681D
:101A5000206B321DFEF7C0FE21686FF04000086069
:101A600084F838502068416941F0800141610020CC
:101A700070BD012070BD022070BD000091230008E0
:101A8000BF23000801230008704770472DE9F05F6D
:101A900006460068884600EB4814D4F808054FF065
:101AA000040B410708EB88004FF0050A4FF01007C0
:101AB00006EBC00508D5C4F808B5D4F80C0540F00D
:101AC0000200C4F80C0532E0D4F80805800601D500
:101AD00020202AE0D4F808054FF00809000710D5A7
:101AE000D4F80C0540F00200C4F80C0585F85DA0A0
:101AF000C4F80875C4F808954146306801F0DBFE6B
:101B000015E0D4F80805400511D5D4F80C0540F0CF
:101B10000200C4F80C054146306801F0CCFEC4F860
:101B2000087585F85D904FF48060C4F80805D4F816
:101B3000080580050ED5D4F80C0540F00200C4F865
:101B40000C05414604F5A164306801F0B4FE4FF481
:101B500000708DE0D4F808054FF00001C0074FF089
:101B6000010236D0306930B1A86CD4F81035C3F317
:101B70001203C01AE86485F85D20A965C4F8082539
:101B800095F83F0020B1022802D003280ED019E0BA
:101B9000D4F80C0540F00200C4F80C05414604F5E9
:101BA000A164306801F087FE27600BE0D4F80005DF
:101BB00040F00050C4F8000585F85C2041463046EE
:101BC000FEF78DFF15F8500F80F001002870BDE87A
:101BD000F09FD4F80805800733D5D4F80C0520F021
:101BE0000200C4F80C0595F85D000223012806D018
:101BF000052807D0062808D0082806D018E085F860
:101C00005C2015E085F85CA012E0A86D421CAA6576
:101C1000032803D9A96585F85CB001E085F85C303C
:101C2000D4F8000520F0804040F00040C4F80005E2
:101C3000C4F8083595F85C2041463046FEF74FFF62
:101C4000C5E7D4F80805000614D5D4F80C0540F013
:101C50000200C4F80C05A86D4146401CA86506208A
:101C600085F85D0004F5A164306801F024FE802051
:101C70002060ACE7D4F80805C006A8D595F83F0069
:101C8000032809D1D4F80C0540F00200C4F80C0573
:101C90004146306801F00FFE032085F85D00C4F86E
:101CA000087595F83F0008B1022890D1D4F80005D6
:101CB00020F0804040F00040C4F8000587E72DE99F
:101CC000F047026802EB4114D4F808254FF0040CE9
:101CD000520709D5C4F808C5D4F80C0540F0020035
:101CE000C4F80C05BDE8F087D4F8082501EB8103A2
:101CF00092064FF0020600EBC30514D52022C4F86B
:101D0000082595F83D20012AECD185F85DC0D4F86E
:101D10000C2542F00202C4F80C25006801F0CBFD4E
:101D200085F85C60DEE7D4F808254FF00003520622
:101D30000FD585F85DC0AB65D4F80C2542F00202E2
:101D4000C4F80C25006804F5A16401F0B4FD40203E
:101D500010E0D4F8082592050ED5D4F80C2542F0F1
:101D60000202C4F80C25006804F5A16401F0A3FD8B
:101D70004FF400702060B5E7D4F808254FF0010853
:101D8000D20710D0AB65D4F80C2542F00202C4F89B
:101D90000C25006804F5A16401F08DFDC4F80080F5
:101DA00085F85D809EE7D4F808254FF008091207F2
:101DB0004FF0050A0DD5C4F80895D4F80C2542F06B
:101DC0000202C4F80C25006801F075FD85F85DA0DD
:101DD00088E7D4F808254FF01007D20610D5AB6578
:101DE000D4F80C2542F00202C4F80C25006804F572
:101DF000A16401F060FD032085F85D00276071E7B4
:101E0000D4F8082512060FD5D4F80C2542F00202AA
:101E1000C4F80C25006804F5A16401F04CFD06200F
:101E200085F85D008020A5E7D4F80825520511D576
:101E3000D4F80C2542F00202C4F80C25006804F521
:101E4000A16401F038FD27604FF48060206085F8C0
:101E50005D9047E7D4F8082592078CD5D4F80C2577
:101E600022F00202C4F80C2595F85D20012A0AD060
:101E7000032A26D0042A13D0052A16D0062A17D002
:101E8000082A15D01FE085F85C8095F83F20022ACB
:101E900019D195F8512082F0010285F8512012E005
:101EA00085F85C6085F83D300DE085F85CA00AE0BF
:101EB000AA6D571CAF65032A03D9AB6585F85CC0D2
:101EC00001E085F85C60C4F8086595F85C20FEF7D1
:101ED00006FE07E77CB504680546D4F84004019087
:101EE000D4F8400420F02E000090019880070DD512
:101EF0000198C00706D0A06920F00051A1612846D2
:101F0000FEF79CFD009840F0020000900198000749
:101F10002CD5009840F008000090019840071AD591
:101F2000A869022803D0E86803280CD00FE00198C4
:101F3000C0F341400228286803D0012101F00AFFC4
:101F400005E00221FAE74EF66020C4F804042846B2
:101F5000FEF774FD0AE0D4F8400420F02E00C4F827
:101F600040042868816941F0005181610198800630
:101F7000009802D540F020000090C4F840047CBDD9
:101F80002DE9F041024600680646016AC1F3434369
:101F900001F00F07C1F30A14022B25D1002C23D026
:101FA00007EB870102EBC105696C00291CD02246B2
:101FB00001F0EFFE686C20446864E86C2044E8643B
:101FC00006EB4710D0F81015084A11420CD0D0F893
:101FD000001521F0804141F00041C0F8001515F8CE
:101FE000500F80F001002870BDE8F0810000F81F5C
:101FF000FEE70000154808B5016841F400110160D2
:102000000068002200F40010009001210C20FEF76F
:1020100085FF0C20FEF776FF002211460D20FEF70B
:102020007DFF0D20FEF76EFF002211460E20FEF709
:1020300075FF0E20FEF766FF002211460F20FEF707
:102040006DFFBDE808400F20FEF75CBF303802404E
:102050002DE9F0412F4886B00024016841F080014D
:102060000160016801F080010591016841F0020101
:102070000160016801F002010591016841F0100161
:102080000160016801F010010591016841F008014B
:102090000160016801F008010591016841F001014A
:1020A0000160016801F001010591016841F004013E
:1020B00001600068184F00F0040005900022022122
:1020C0003846FEF7AFFCDFF854804FF4C0660022BC
:1020D00031464046FEF7A6FC01250220CDE9000569
:1020E000CDE9025469463846FEF7C4FBCDE90065E8
:1020F000CDE9025469464046FEF7BCFBA802CDE993
:102100000004694606480294FEF7B4FB06B0BDE839
:10211000F08100003038024000040240001002400C
:102120000000024010B5114C0F480C2120604FF404
:10213000E13060600020A060E060C4E90401A061BB
:10214000E0612046FFF772FA00B1FEE72068C1683F
:1021500041F01001C160064804490278BDE8104012
:1021600040310248FFF760BB00480040A80400204F
:102170000400002010B501220649074801F011F8BB
:102180000649054801F076FABDE81040024801F022
:10219000A6BA0000F5360008CC0600202800002072
:1021A000014801F0B3B90000CC060020FEE77047FB
:1021B0000907090E002806DA00F00F0000F1E02000
:1021C00080F8141D704700F1E02080F8001470477B
:1021D0000148FEF7E1BC0000940A002070477047F8
:1021E00010B5FEF70BFEBDE81040FFF766B9000022
:1021F00030B5254893B00025016841F08051016059
:10220000006800F0805011902048016841F480413E
:1022100001600068022400F48040119001200090C9
:10222000000401908001CDE9064004200890A82018
:10223000CDE9090407200B906846FEF78FFF00B137
:10224000FEE70CA90F2081E831004FF4A0500F9059
:102250004FF48050109005210CA8FEF791FE00B1BC
:10226000FEE7FEF725FF4FF47A71B0FBF1F0FFF7C0
:1022700010F90420FFF700F900221146501EFEF766
:102280004DFE13B030BD00004038024000700040E9
:102290001048016841F4700101600F48016841F085
:1022A000010101600C4A00210832116002680B4BE9
:1022B0001A400260031D0A4A1A60026822F4802252
:1022C000026005480C3001600249580680390860F8
:1022D0007047000088ED00E000380240FFFFF6FE86
:1022E000103000240148FFF719B9000068040020ED
:1022F00010B5806B0021C185C184FFF70EF910BDB8
:1023000070B5846B2068406994F83910C0F3C01030
:102310000025212904D118B1E584204600F062F897
:102320002068406994F83A10C0F38010222904D143
:1023300018B1E585204600F047F8E06B40F010004A
:10234000E0632046FFF7E9F870BD10B50146806BE9
:1023500009680968C90513D40021C1850168CA68E4
:1023600022F48072CA6001684A6922F001024A615F
:1023700001684A6922F040024A61202180F83A103F
:10238000FFF7C2FA10BD10B5806BFFF7DFFA10BD82
:1023900010B50146806B09680968C9050CD4002195
:1023A000C18401684A6922F080024A610068C168FC
:1023B00041F04001C16010BDFFF766FB10BD10B5D4
:1023C000806BFFF762FB10BD0168CA6822F490724F
:1023D000CA6001684A6922F001024A61202180F83E
:1023E0003A1070470168CA6822F0C002CA60202112
:1023F00080F83910704710B590F83A10222901D0B2
:10240000022010BD8168B1F5805F11D001690029FB
:1024100001681FD0496801F07F03816A4A1C82620B
:102420000B70C18D491E0904090CC18518D026E026
:102430000269816A002A0268526805D0D2B20A8015
:10244000816A491C8162ECE7C2F308020A80816A52
:10245000891CF7E74A68816A4B1C83620A70E0E7CF
:102460000168CA6822F49072CA6001684A6922F061
:1024700001024A61202180F83A10FFF745FA002056
:1024800010BD00002DE9F04104460068016921F407
:102490004052E168114301612168C86849F20C6249
:1024A00090432369A268E5691A4363692B431A4381
:1024B0000243CA602168486920F44072A069104351
:1024C0004861E1696425B1F5004F9748974A216852
:1024D0004FF032083FD0914201D081427CD1FEF7CB
:1024E000FDFD00EBC00101EB001061688900B0FB4D
:1024F000F1F6FEF7F3FD00EBC00101EB001061689F
:102500008900B0FBF1F0B0FBF5F06FF01801484323
:1025100006EB800108EB0110B0FBF5F000F0F006CF
:10252000FEF7DCFD00EBC00101EB001061688900E3
:10253000B0FBF1F0B0FBF5F006EB0016FEF7CEFDB8
:1025400000EBC00101EB001061688900B0FBF1F7FE
:10255000FEF7C4FDD2E0914201D081423DD1FEF7A9
:10256000BDFD00EBC00101EB001061684900B0FB4C
:10257000F1F0B0FBF5F00601FEF7B0FD00EBC00195
:1025800001EB001061684900B0FBF1F7FEF7A6FD12
:1025900000EBC00101EB001061684900B0FBF1F0F5
:1025A000B0FBF5F06FF01801484307EB800108EB32
:1025B000C100B0FBF5F000F0F80006EB4006FEF7B6
:1025C0008DFD00EBC00101EB001061684900B0FB1C
:1025D000F1F7FEF783FD3CE055E0FEF76FFD00EB01
:1025E000C00101EB001061684900B0FBF1F0B0FBE5
:1025F000F5F00601FEF762FD00EBC00101EB0010F3
:1026000061684900B0FBF1F7FEF758FD00EBC0012F
:1026100001EB001061684900B0FBF1F0B0FBF5F090
:102620006FF01801484307EB800108EBC100B0FBD5
:10263000F5F000F0F80006EB4006FEF73FFD00EB7A
:10264000C00101EB001061684900B0FBF1F7FEF733
:1026500035FD00EBC00101EB001061684900B0FBE3
:10266000F1F0B0FBF5F06FF01801484307EB800183
:1026700008EBC100B0FBF5F000F007002168304422
:102680008860BDE8F081FEF719FD00EBC00101EBA9
:10269000001061688900B0FBF1F6FEF70FFD00EB5A
:1026A000C00101EB001061688900B0FBF1F0B0FBE4
:1026B000F5F06FF01801484306EB800108EB0110BC
:1026C000B0FBF5F000F0F006FEF7F8FC00EBC001FF
:1026D00001EB001061688900B0FBF1F0B0FBF5F090
:1026E00006EB0016FEF7EAFC00EBC00101EB001060
:1026F00061688900B0FBF1F7FEF7E0FC00EBC00178
:1027000001EB001061688900B0FBF1F0B0FBF5F05F
:102710006FF01801484307EB800108EB0110B0FB94
:10272000F5F000F00F00A9E700140140001001408F
:1027300090F83910212901D0022070478168B1F545
:10274000805F016A0BD04A1C0262026809785160FE
:10275000C18C491E0904090CC1840ED017E00988F8
:102760000268C1F30801516001690029016A02D0C1
:10277000491C0162ECE7891CFBE70168CA6822F08A
:102780008002CA600068C16841F04001C160002059
:1027900070472DE9F041984617460E460446069DBF
:1027A0001DE0681C1BD02DB1FEF742F9A0EB08001C
:1027B000A84214D92068C16821F4D071C160206892
:1027C000416921F001014161202084F8390084F839
:1027D0003A00002084F838000320BDE8F08120682A
:1027E000006836EA000004D00020B842D9D00020AA
:1027F000F3E70120F9E700000F4808B50068016819
:10280000C1F3001191B1016841680091016840680D
:102810000948FEF756FE09480068406808490978EB
:10282000081A08490870084901200870BDE80840E6
:102830000148FEF773BE0000A80400200C0600202B
:1028400004000020000000200100002010B500223C
:102850004FF6FF7300EB8204B4F87C43240409D4E0
:102860009A4205D000EB820041F40041C0F87C138D
:10287000D0B210BD521CD2B20B2AEBD31A46F7E7E6
:1028800010B500F0B6FC002010BD8278012A07D1F7
:102890000222027401224274002242828182C28298
:1028A0000022114600F00FB87FB51C46012501AE8D
:1028B0000023009586E80E002A46214600F090FD90
:1028C00004B0002070BD70B504460120A378054611
:1028D000012B09D0022B06D1204600F02AFB48B17B
:1028E000022800D1A57070BDA160A28125760221C9
:1028F000A17070BDA5700021217670BD7FB51D4609
:1029000090F81D33089C03B100240123CDE9003168
:10291000CDE9022400231A46294600F061FD04B0E7
:10292000002070BD1FB500231446CDE900310822F8
:10293000CDE902231A46214600F052FD04B00020E2
:1029400010BDFDF785BF70B5002400F2323004EBF6
:10295000840505EBC40500EB4505EE7B0A358E4288
:1029600001D0FF2909D1AE79964201D0FF2A04D1C6
:10297000ED799D4207D0FF2B05D0641C64B2022C78
:10298000E5DBFF2070BDE0B270BD0B2907D200EB84
:102990008100B0F87C13C1F30E01C0F87C13002055
:1029A000704730B48578029C012D0FD141F0800131
:1029B00001740621417403214282B1EB122F02D12E
:1029C00040F2094100E000218182C482224630BCED
:1029D0001946FFF778BF0A8803781A440A800178FD
:1029E00008447047F8B50E4600F11C0500910446F6
:1029F0002B464FF400720021FFF7D3FF070005D1EB
:102A00003246294604F2323000F00CFD3846F8BD5B
:102A100038B50D460091044600F58E734FF4807270
:102A20000021FFF7BEFF01003DD104F5487094F886
:102A30001C21027094F81D21427094F81E2194F814
:102A40001F31082D02EB0322428094F820210271ED
:102A500094F82121427194F82221827194F8232163
:102A6000C27120D994F8242194F8253102EB032275
:102A7000028194F8262194F8273102EB0322428147
:102A800094F8282194F8293102EB0322828194F8EA
:102A90002A21827394F82B21C27394F82C2102749A
:102AA00094F82D214274084638BDF8B51C461646E8
:102AB000009341F4407200F58E731D460021FFF72C
:102AC00070FF002814D16978032911D129788A1E52
:102AD000A24200DC14460021A2B2AD1C04E06B5CF3
:102AE000891C06F8013B89B29142F8D3002131706C
:102AF000F8BD70B50446D0F874030126C56968793D
:102B000006284AD2DFE800F003492903313C0921B5
:102B1000204600F045F838BB05F1260094F81C115A
:102B2000017094F81D11417094F81E1194F81F2142
:102B300001EB0221298594F82011017194F82111EB
:102B4000417194F82211817194F8231194F8242191
:102B500001EB02210181022005E0E98D204600F011
:102B600029F808B90420687117E0002211462046B0
:102B700000F0C3F9052108B103280ED169710CE0FA
:102B80000021204600F0C6F938B901206871D4F858
:102B9000C4230221204690470026304670BD70476E
:102BA00008B500F58E7300914FF404520121FFF730
:102BB000F8FE08BD08B500F58E7300914FF4085279
:102BC0000121FFF7EEFE08BD30B4A125029C05747B
:102BD000012542EA01214574418200218182C4829B
:102BE000224630BC1946FFF76EBE70B50546D0F8D8
:102BF00074030026C469617839B12846FFF740FEA6
:102C000061782846FFF7C1FE6670217839B1284601
:102C1000FFF736FE21782846FFF7B7FE2670D5F875
:102C20007403C06908B101F09DFA002070BD000076
:102C30002DE9FE430546D0F87403002602240179ED
:102C4000FF2301222846FFF77EFE0146FF2879D0A8
:102C5000284600F01DFD342001F00AFBD5F874135E
:102C60000446C8610721817095F81F0300EB8001BD
:102C700001EBC00005EB400090F84303012804D0AD
:102C8000022804D00220BDE8FE833E4800E03E4812
:102C900020630020A070607195F81F0300EB800195
:102CA00001EBC00005EB400090F84803A07695F8D2
:102CB0001F0300EB800101EBC00005EB4000B0F802
:102CC0004A03208395F81F0300EB800101EBC0004D
:102CD00005EB400090F84C03A0830A2801D20A209B
:102CE000A08395F81F0300EB800101EBC00005EB0A
:102CF000400090F84073022F3ED9022795F81F0339
:102D00004FF0030800EB800101EBC00005EB400031
:102D100000EBC60090F84813080614D52171284628
:102D2000FFF794FD60700146208B95F81D33CDE9C7
:102D30000038029095F81C332279284600F068FB91
:102D4000617813E01BE0E1702846FFF77FFD2070FB
:102D5000228B95F81D33CDE900380292014695F893
:102D60001C33E278284600F053FB217800222846E5
:102D700000F006FB761CF6B2BE42BFD3002420460C
:102D800081E700008D2D0008E12D000810B50146F7
:102D9000D0F874030022114CC3690F48827042704E
:102DA0000271C270827142710272C271104600BF1C
:102DB00044F82020401C0228FAD3188B022801D99D
:102DC00002201883502203F1080001F58E715C6126
:102DD00001F086F9002010BD2C0D002048000020D5
:102DE00010B50146D0F874030B4B0022C0691A706D
:102DF0005A709A70DA701A711B1F1A60028B042ABB
:102E000001D90422028343612822083001F58E7122
:102E100001F066F9002010BD54000020F8B5054609
:102E2000D0F8740300270426C469A078072851D27B
:102E3000DFE800F0040750501E192D00216B2846D2
:102E40008847207E00900022012128466369FFF711
:102E5000BBFE40BB228B04F10800616901F047F919
:102E60000520A07036E0D5F8B803C00731D131E0B5
:102E70006378227E2846616900F0ABF90620A070D5
:102E8000D5F8B8032062002084F8240022E061789D
:102E9000284600F005FA012806D06178284600F09F
:102EA000FFF9052810D015E094F8240090B9228B82
:102EB00004F10800616901F01AF9012084F8240086
:102EC0002846FFF76CFE05E0A17E2846FFF7DDFCF3
:102ED00000B9A6703846F8BDD0F87413C9698A786D
:102EE000062A08D1D0F8B8030A6A801A8A8B904261
:102EF00001D30420887000207047212303740A2323
:102F0000437442EA0121418200218182C1820A4642
:102F1000FFF7D9BC212202740B22427439B100217F
:102F2000418200218182C1820A46FFF7CCBC012187
:102F3000F6E72DE9F84F04460125007E0B262F46C3
:102F40004FF009084FF007094FF0050B4FF00D0A3D
:102F50000C281ED2DFE800F0A9060E212C38445CB4
:102F600067788495627904F110012046FFF7DAFC56
:102F700002200DE06179204600F092F9012877D116
:102F8000207CE18A00F0800021B180283BD1032021
:102F900020768AE0802814D02FE0D4F8B803E081AE
:102FA0002379A2892046A168FFF77EFC0420EFE781
:102FB0002179204600F074F9012802D0052841D07B
:102FC00056E084F8188070E000976379A289204663
:102FD000A168FFF793FCD4F8B803E0810620D7E797
:102FE0006179204600F05CF9012806D0052807D059
:102FF000022808D0042809D057E084F8189054E03B
:103000000C2020761EE084F818B04EE026764BE0C7
:103010000022237911462046FFF746FCD4F8B80376
:10302000E0810820B4E72179204600F039F9012831
:1030300004D0042823D0052804D036E084F818A052
:10304000002532E0032530E0009700226379114625
:103050002046FFF753FCD4F8B803E0810A2097E735
:103060006179204600F01CF9012804D00228A8D07C
:10307000042804D019E0002584F818A015E026766D
:1030800013E0607E401CC0B26076022805D820465E
:1030900000F096F92776A77007E0D4F8C42306213C
:1030A000204690470020607602252846BDE8F88F2C
:1030B000FEB50446012640780025374604F58E7299
:1030C00008286CD2DFE800F004161D434A5357620B
:1030D00008212046FFF79CFC002860D194F82703C4
:1030E000A071677094F81D130091CDE9015094F818
:1030F0001C3319E012212046FFF78AFC30BB022066
:1031000033E00121204600F0CEFAF8B90220FFF7A3
:1031100018FC84F81C7303206070A07994F81D13C8
:10312000CDE900153B46029021798022204600F02F
:103130006FF9A07994F81D130091CDE9015094F82E
:103140001C3361790022204600F062F927E0092152
:103150002046FFF747FC10BB042006E0B4F8341308
:103160002046FFF73FFCD0B90520607017E094F8C7
:103170002E13062502E094F82F13072521B1FF2313
:103180002046FFF792FC50B9657008E094F83013C0
:1031900021B1FF232046FFF788FC00B90026304606
:1031A000FEBD70B50D46040011D084F8BC2300208C
:1031B000C4F87403C4F878032046FDF755F90DB13F
:1031C000C4F8C453204600F07FF8002070BD0220F0
:1031D00070BD7FB51C46012501AE0023009586E831
:1031E0000E0003232A46214600F0FAF804B000201E
:1031F00070BD10B50024D0F8C003FDF734FC30B129
:10320000012801D0022801D0022400E00124204638
:1032100010BD10B5017819B10178012909D00AE073
:10322000012180F81E13D0F8C42322B10421904755
:1032300001E002210170002010BD10B5044600F02D
:10324000BFF821792046FFF7A0FB61792046FFF700
:103250009CFB002084F81E03D4F8C42312B105217E
:1032600020469047204600F09BF803202070002065
:1032700010BD10B5C820FDF7EBFA002010BD10B549
:103280000124D0F8C003FDF7E4FB20B1012805D0EC
:10329000022803D101E0002400E00224204610BDF2
:1032A000D0F8C003FDF7D8BBD0F8B813491CC0F85C
:1032B000B81301780A2905D1D0F87413002901D078
:1032C000896908477047000010B5044690F8BC03B0
:1032D00001281ED110484FF0A0410022C0F89442AE
:1032E000C4F8C0030160082181600321C0E9031212
:1032F0000221C0E90612FDF7E6FC18B1DF2107A0A4
:1033000000F0F1FD0448FDF7A1FB0146204600F066
:1033100034F8002010BD0000940A00202E2E2F53F8
:1033200072632F757362685F636F6E662E63000051
:10333000FEB508AC94E8E0008DE8E0000024D0F889
:10334000C003FDF7A2FB30B1012801D0022801D053
:10335000022400E001242046FEBD10B50024D0F870
:10336000C003FDF71BFD30B1012801D0022801D0B8
:10337000022400E00124204610BDC0F8B8137047B5
:10338000D0F8C00301EB810100EBC10090F83B10C5
:1033900011B180F8502001E080F8512000207047E2
:1033A00010B50024D0F8C003FDF7FFFC30B10128B0
:1033B00001D0022801D0022400E00124204610BDE3
:1033C00010B50024D0F8C003FDF705FD30B1012889
:1033D00001D0022801D0022400E00124204610BDC3
:1033E0002DE9FF410AAC94E8E0108DE8E0100024DC
:1033F000D0F8C003FDF774FB30B1012801D00228DA
:1034000001D0022400E0012404B02046BDE8F08190
:10341000FEB508AF97E870008DE87000FFF788FFF1
:103420000020FEBD2DE9F84105460B782B704B7846
:103430006B708B78CC78084603EB04236B800B7998
:103440002B714B796B718B79AB71CB79EB71002759
:10345000017A2972092A57D90921ADF800104EE0E6
:103460006946FFF7B8FA4178042946D107EB87018E
:1034700001EBC70105EB4108017888F80A10417893
:1034800088F80B10817888F80C10C17888F80D1036
:10349000017988F80E10417988F80F10817988F841
:1034A0001010C17908F10A0488F81110017A21720C
:1034B000002618E06946FFF78EFA4178052912D1F7
:1034C00008EBC60102780A7542784A7582788A75D7
:1034D000C278CA7502794379761C02EB03220A830B
:1034E00082798A7676B22179B14204DD6988BDF8A5
:1034F00000209142DED87F1C7FB2022F04DA6A8856
:10350000BDF800108A42ABD8BDE8F881FEB504468C
:1035100002208DF800002178002008270C2605469F
:103520000B2913D2DFE801F006A41399A4428250BC
:10353000575F920094F81E03002807D001202070E6
:10354000C820FFF7FEF92046FFF707FF90E0642050
:10355000FFF7F7F92046FFF792FE84F81D030520D8
:10356000207000212046FFF771F96071802120460C
:10357000FFF76CF920710146A07994F81D230092A1
:10358000CDE9015094F81C3380222046FFF740FF1C
:10359000A07994F81D130091CDE9015094F81C33E3
:1035A000617900222046FFF733FF61E02046FFF7F4
:1035B0007FFDD0BB84F81F5394F83103012801D05C
:1035C00007203FE0277053E0D4F8C4236AB30121F9
:1035D00020469047F6E794F83713204600F071F83C
:1035E00018BB09202EE0D4F87813F1B1C4F8745355
:1035F00094F8412304EB8001D1F870130B799342C6
:1036000001D1C4F87413401C10F0FF00F2D0D4F8BC
:103610007403C8B1816820468847A8B90620207085
:10362000D4F8C42303212046904721E0D4F8740342
:1036300050B10169204688478DF800009DF80000D0
:10364000B0B90A20207013E0267011E0D4F874039A
:1036500070B14169204688470AE02046FCF704FF24
:10366000D4F8740320B1C16820468847C4F8745365
:103670000020FEBD002211B1D0F8783313B1022230
:10368000104670470123C0F87833C0F87013F7E78D
:103690000246002092F836338B4202D982F81F137B
:1036A0007047022070478278012A06D100220274F6
:1036B0000523437441828282C28200221146FFF7B1
:1036C00002B98278012A06D10022027409234374C8
:1036D00041828282C28200221146FFF7F4B810B5FF
:1036E0000446FFF75DFE01212046FFF7C2FD0020E2
:1036F00010BD000001290ED00A4A022909D00A484B
:10370000042909D0052906D1032111700122411590
:1037100006E0022010707047012111700A468902EC
:10372000FDF780B9140000200010024070B5044677
:10373000049D06990D9801290CD0E06840F04000E6
:10374000E060204600F028F84FF48030A063012D9F
:1037500016D01DE0A16B21F48031A163E1680D4A10
:103760001140E160E16821F44011E160012803D1DA
:10377000E06840F48010E060204600F00DF8E6E7D5
:10378000A06840F00600A060A06840F02000A060A3
:10379000002070BDBFFFBDFF01220C4902E0521C9A
:1037A0008A420BD80369002BF9DA026942F0010260
:1037B0000261012204E0521C8A4201D903207047B1
:1037C0000369DB07F7D1002070470000400D0300BC
:1037D000816821F0010181600020704730B5024608
:1037E000012400230C4800EAC44040F0004502F5E3
:1037F000A06000EB4110056102F5A06000EB4110F4
:10380000036823F0804343F0004302F5A06000EB1F
:1038100041100360002030BD0000F81F08B5D0F84B
:10382000402422F02E020092D20405D4012909D1AD
:10383000009941F4805103E021B9009921F48051AD
:10384000C0F84014002008BD816841F0010181608A
:1038500000207047002110220261054A491C914254
:1038600001D9032070470369DB06F7D400207047B5
:10387000400D03000022202343EA81110161054924
:10388000521C8A4201D90320704703699B06F7D472
:1038900000207047400D0300D0F8080480B2704744
:1038A00008B5D0F840040090C0F3414008BD40691D
:1038B00000F00100704710B50246002302F5A06039
:1038C00000EB41100068C0F3814040B102F5A060F8
:1038D00000EB41100068C0F38140022846D102F598
:1038E000A06000EB4110006840F0804402F5A06049
:1038F00000EB41100460D06A00F47F0048BB02F581
:10390000A06000EB4110006820F0004402F5A060C8
:1039100000EB4110046002F5A06000EB411000686C
:1039200040F0004402F5A06000EB4110046000BFCD
:10393000581C0346B0F57A7F00D909E002F5A06073
:1039400000EB4110006800F00040B0F1004FEFD0F4
:1039500053E002F5A06000EB4110006840F0004425
:1039600002F5A06000EB4110046046E002F5A060A3
:1039700000EB4110006840F0804402F5A06000EBCD
:10398000411004604FF48260805880B248BB02F559
:10399000A06000EB4110006820F0004402F5A06038
:1039A00000EB4110046002F5A06000EB41100068DC
:1039B00040F0004402F5A06000EB4110046000BF3D
:1039C000581C0346B0F57A7F00D909E002F5A060E3
:1039D00000EB4110006800F00040B0F1004FEFD064
:1039E0000BE002F5A06000EB4110006840F00044DD
:1039F00002F5A06000EB41100460002010BD000043
:103A0000F0B5DDE906564FF0FF3C00EB4114059F91
:103A1000C4F808C535B1012D21D0022D02D0032DE7
:103A20002AD114E040F29D4CC4F80CC55FEA026C48
:103A300005D500BFD4F80CC54CF4807C1AE0B0F179
:103A4000A04F19D0D4F80CC54CF0600C12E040F235
:103A50009D6CC4F80CC55FEA026CEBD40CE040F23C
:103A6000252CC4F80CC55FEA026C05D5D4F80CC54A
:103A70004CF4C07CC4F80CC5D0F818C44FF0010E4B
:103A80000EFA01FE4CEA0E0CC0F818C4816941F030
:103A9000007181614FF0FE5000EA83504FF4F04115
:103AA00001EAC22108434FF4004101EA0221084320
:103AB000022F10D05FF0000140EA41404FF4402156
:103AC00001EA85410843C6F30A010843C4F800052A
:103AD000032D02D007E00121EEE7D4F8000540F005
:103AE0000050C4F800050020F0BD014640F214402B
:103AF000405880B2704700002DE9F84F05460C464B
:103B000016464FF0000BDA4600274FF48078B9468E
:103B1000B5F1A04F1CD02079D0B94EB960790128F9
:103B200006D161782846FFF759FE0020BDE8F88FDE
:103B3000012E0DD1607805F5A06101EB4010C06841
:103B400020F06002607801EB4010C26000206071DC
:103B5000206968B1218920690844401EB0FBF1F05A
:103B600087B2474505DD474620897843206100E05C
:103B70000127E07810B12089784320612069C0F3E3
:103B800012003E4901EAC7410843A17A4FF0C04202
:103B900002EA41710843617805F5A06202EB411128
:103BA000086136B1607805F5A06101EB4010E2686C
:103BB00042614FF48160405900F0010080F0010B38
:103BC000607805F5A06101EB4010006820F000521C
:103BD000607801EB40100260607801EB40100068F3
:103BE00040EA4B72607801EB40100260607801EBB4
:103BF0004010D0F8009029F0804949F000496078E1
:103C000001EB4010C0F80090AEBBE07898BB206993
:103C100088B3E07930B1012813D0022803D00328FB
:103C20001ED10DE000BF2069C01CC0F38F0AE86AF6
:103C300080B2504503D2A86940F02000A86110E08E
:103C400000BF2069C01CC0F38F0A4FF48260405946
:103C500080B2504503D2A86940F08060A86100E0BE
:103C600000BF00BF00200090208A83B262782846FF
:103C7000E16800F023F9002058E700000000F81F79
:103C80002DE9F047174604460025DDF82090C0F8DE
:103C9000005E806B20F48020A063A06B20F40020E5
:103CA000A063A06B40F40010A0634FF0A048032B6A
:103CB00006D1444504D0D4F8000440F0040003E0E9
:103CC000D4F8000420F00400C4F8000410212046B9
:103CD000FFF7D0FD2046FFF7BDFD0020461E06E0A1
:103CE00004EB4011C1F80865C1F80C55401C87422F
:103CF000F6D801212046FFF791FDC820FCF7A8FD6A
:103D0000A5616661444505D1802060620C48A062CF
:103D10000C4805E04FF4007060620B48A0620B484D
:103D2000C4F80001B9F1000F03D1A06940F0100000
:103D3000A061A06906490843A0610020BDE8F087A2
:103D400080006000E0004000000200010003E0008D
:103D5000080020A3D0F8002422F00302C0F80024B9
:103D6000D0F8002401F003031A43C0F8002401290D
:103D700002D0022903D006E04BF6803101E041F287
:103D80007071C0F8041400207047416980690840D0
:103D9000704710B503460020D21C920803F58053EB
:103DA00003E01C6841F8044B401C9042F9D30846DC
:103DB00010BD38B50446D0F8400420F02E00009025
:103DC00040F48070C4F840040A2004F58864FCF7CD
:103DD0003FFD009820F480702060002038BD10B5B1
:103DE000C26822F0C042C260012901D021B107E0BF
:103DF000C16841F0005102E0C16841F08041C160FA
:103E00003220FCF725FD002010BDF0B50546002747
:103E1000A86820F00100A86010212846FFF72AFDBD
:103E20002846FFF717FD002411E005F5A06000EB20
:103E30004410066846F0804626F0004626F4004608
:103E400005F5A06000EB44100660601CC4B20F2CA6
:103E5000EBDD002423E005F5A06000EB44100668CC
:103E600046F0804646F0004626F4004605F5A06080
:103E700000EB4410066000BF781C0746B0F57A7F5F
:103E800000D909E005F5A06000EB4410006800F0DF
:103E90000040B0F1004FEFD000BF601CC4B20F2C47
:103EA000D9DD4FF0FF3140F21440415108466861BE
:103EB000A86840F00100A8600020F0BD30B50024E3
:103EC000039D6DB9DB1C9B0800EB023000F58050B0
:103ED00004E000BF51F8042B0260641C9C42F9D33B
:103EE000002030BDFEE7FEE70FB4054B10B503A977
:103EF000044A029800F018F810BC5DF814FB0000AA
:103F0000414100085C00002002E008C8121F08C1FF
:103F1000002AFAD170477047002001E001C1121F4A
:103F2000002AFBD1704700002DE9FF4F8BB09A4665
:103F30000F460546002606E025280BD052460D996F
:103F400090476D1C761C28780028F5D10FB03046BC
:103F5000BDE8F08F0024A0460122604900E0044340
:103F600015F8013F203B02FA03F00842F7D1287808
:103F70002E2817D115F8010F44F004042A280ED07A
:103F80006FF02F022878A0F1300109290AD808EB38
:103F9000880102EB410100EB01086D1CF2E757F8C4
:103FA000048B6D1C287869283ED006DC0028CDD013
:103FB00063280BD0642804D136E0732810D075280C
:103FC0004BD052460D999047761C85E017F8040BAC
:103FD0008DF8000000208DF80100E946012003E083
:103FE00057F8049B4FF0FF3061074FF0000401D4F5
:103FF0000AE0641C44450DDA8442FADB19F8041027
:104000000029F6D106E0641C8442FCDB19F8041098
:104010000029F8D1264404E019F8010B52460D9905
:104020009047641EF8D257E001CF4FF00A0B0028EA
:1040300002DA40422D2102E0210504D52B218DF822
:104040002410012103E0E10705D02021F7E70DF15D
:10405000200908910CE00021F9E701CF4FF00A0B8D
:10406000F9E75946FCF701F901F1300209F8012D91
:104070000028F6D1ADEB090000F1200B600701D458
:104080004FF00108D84502DDA8EB0B0000E000204E
:104090008046002406E009A85246005D0D9990472D
:1040A000641C761C08988442F5DB04E030205246FC
:1040B0000D999047761CB8F10001A8F10108F5DCD4
:1040C00005E019F8010B52460D999047761CBBF19B
:1040D0000001ABF1010BF4DC6D1C34E70928010091
:1040E00000238380C3808372028101607047F0B532
:1040F000837A0024EBB901238372002317E08588BB
:10410000C7886E1CBE4217D0B0F808C0664500D103
:1041100097B1076811F8016B7E5585886D1CADB2AB
:1041200085800689B54200D184805B1C9BB2934296
:10413000E5D384721046F0BD84721846F0BD0000CD
:1041400010B5044605484FF47A7301460470012205
:104150000348FDF7FCFB204610BD0000590000207D
:10416000A804002010B5002821D0114B0022001F08
:10417000196803E0814203D80A4649680029F9D149
:1041800052B11368841A9C4204D10068184410602C
:10419000104602E0506000E0186039B102680B1A66
:1041A000934203D10B681A4402604968416010BD14
:1041B00060000020FCF72AFEFEF71AF8FDF748FF22
:1041C000FDF718FFFDF7AEFFFDF7D4FF1E4E1D48AB
:1041D000002530604FF4E130C6E901050C20F560A0
:1041E000C6E90450B5613046F561FDF71FFA00B12C
:1041F000FEE7164C012214486168FDF761FB144F7D
:104200004FF48068FDF7CCFFFCF7E2F8A0680128C6
:1042100014D10F490FA0E268FFF766FEA0890C4990
:1042200082B2642301F58860FDF791FB414608489E
:10423000FCF710F86760B762A560E5600A20FCF73C
:1042400007FBDFE7004C004068040020040000206A
:104250006800002052657475726E5F646174652039
:104260003D202573206C656E203D2025640D0A00DD
:10427000F0B50B30154D20F007010024144A0FE073
:1042800003688B420BD38B4205D95E1A43184768EB
:10429000C3E9006700E04368136002C004E0021D48
:1042A00010680028ECD12046002802D1286808B107
:1042B0000020F0BD064A07481060074A121A22F093
:1042C0000702C0E9002401202860D7E7640000202D
:1042D00060000020440D0020401100200006101650
:1042E0000006101600000000000000000102030498
:1042F00006070809000000000102030448494400C1
:10430000204300080000002068000000083F00086B
:104310008843000868000020D8180000183F0008F3
:1043200000000000640000006800002000000000A1
:10433000000000000000000001000000100000006C
:10434000000000000024F400FC420008030000000C
:10435000312C0008EB2B0008F32A00081D2E000862
:10436000D92E00080000000000000000000000003E
:10437000000000000000000000000000000000003D
:08438000000000000000000035
:040000050800018965
:00000001FF
